{
  "_format": "hh-sol-artifact-1",
  "contractName": "Governance",
  "sourceName": "contracts/Governance.sol",
  "abi": [
    {
      "inputs": [
        {
          "internalType": "address",
          "name": "_tokenAddress",
          "type": "address"
        },
        {
          "internalType": "address",
          "name": "_insuranceAddress",
          "type": "address"
        },
        {
          "internalType": "uint256",
          "name": "_minimumJoinDAO",
          "type": "uint256"
        },
        {
          "internalType": "uint256",
          "name": "_maximumJoinDAO",
          "type": "uint256"
        }
      ],
      "stateMutability": "nonpayable",
      "type": "constructor"
    },
    {
      "anonymous": false,
      "inputs": [
        {
          "indexed": false,
          "internalType": "address",
          "name": "member",
          "type": "address"
        },
        {
          "indexed": false,
          "internalType": "uint256",
          "name": "amount",
          "type": "uint256"
        }
      ],
      "name": "JoinedDAO",
      "type": "event"
    },
    {
      "inputs": [],
      "name": "claimGovernanceFee",
      "outputs": [],
      "stateMutability": "nonpayable",
      "type": "function"
    },
    {
      "inputs": [],
      "name": "claimRequiredVoting",
      "outputs": [
        {
          "internalType": "uint256",
          "name": "result",
          "type": "uint256"
        }
      ],
      "stateMutability": "view",
      "type": "function"
    },
    {
      "inputs": [
        {
          "internalType": "uint256",
          "name": "_amount",
          "type": "uint256"
        }
      ],
      "name": "depositGovernanceFee",
      "outputs": [],
      "stateMutability": "nonpayable",
      "type": "function"
    },
    {
      "inputs": [
        {
          "internalType": "uint256",
          "name": "_joinAmount",
          "type": "uint256"
        }
      ],
      "name": "joinDAO",
      "outputs": [],
      "stateMutability": "nonpayable",
      "type": "function"
    },
    {
      "inputs": [],
      "name": "joinDAOMaximum",
      "outputs": [
        {
          "internalType": "uint256",
          "name": "",
          "type": "uint256"
        }
      ],
      "stateMutability": "view",
      "type": "function"
    },
    {
      "inputs": [],
      "name": "joinDAOMinimum",
      "outputs": [
        {
          "internalType": "uint256",
          "name": "",
          "type": "uint256"
        }
      ],
      "stateMutability": "view",
      "type": "function"
    },
    {
      "inputs": [
        {
          "internalType": "address",
          "name": "_memberAddress",
          "type": "address"
        }
      ],
      "name": "memberViewData",
      "outputs": [
        {
          "components": [
            {
              "internalType": "uint256",
              "name": "Amount",
              "type": "uint256"
            },
            {
              "internalType": "uint256",
              "name": "votePower",
              "type": "uint256"
            },
            {
              "internalType": "bool",
              "name": "joined",
              "type": "bool"
            },
            {
              "internalType": "uint256",
              "name": "dateJoined",
              "type": "uint256"
            },
            {
              "internalType": "uint256",
              "name": "newClaim",
              "type": "uint256"
            },
            {
              "internalType": "address",
              "name": "memberAddress",
              "type": "address"
            },
            {
              "internalType": "uint256",
              "name": "percentageLevel",
              "type": "uint256"
            }
          ],
          "internalType": "struct Governance.DAOMembers",
          "name": "",
          "type": "tuple"
        }
      ],
      "stateMutability": "view",
      "type": "function"
    },
    {
      "inputs": [],
      "name": "memberWithdrawFunds",
      "outputs": [],
      "stateMutability": "nonpayable",
      "type": "function"
    },
    {
      "inputs": [
        {
          "internalType": "uint256",
          "name": "_amountRequest",
          "type": "uint256"
        },
        {
          "internalType": "string",
          "name": "_description",
          "type": "string"
        },
        {
          "internalType": "string",
          "name": "_protocolName",
          "type": "string"
        },
        {
          "internalType": "address",
          "name": "_riskProvider",
          "type": "address"
        },
        {
          "internalType": "address",
          "name": "_claimerAddress",
          "type": "address"
        },
        {
          "internalType": "uint256",
          "name": "_insuranceID",
          "type": "uint256"
        }
      ],
      "name": "requestCoverClaim",
      "outputs": [],
      "stateMutability": "nonpayable",
      "type": "function"
    },
    {
      "inputs": [
        {
          "internalType": "uint256",
          "name": "_idClaimRequests",
          "type": "uint256"
        }
      ],
      "name": "riskAssessorWithdrawInsurance",
      "outputs": [
        {
          "internalType": "uint256",
          "name": "_insuranceID",
          "type": "uint256"
        },
        {
          "internalType": "uint256",
          "name": "refund",
          "type": "uint256"
        }
      ],
      "stateMutability": "nonpayable",
      "type": "function"
    },
    {
      "inputs": [
        {
          "internalType": "uint256",
          "name": "_maximumJoinDAO",
          "type": "uint256"
        }
      ],
      "name": "setMaximumToJoinDAO",
      "outputs": [],
      "stateMutability": "nonpayable",
      "type": "function"
    },
    {
      "inputs": [
        {
          "internalType": "uint256",
          "name": "_minimumJoinDAO",
          "type": "uint256"
        }
      ],
      "name": "setMinimumToJoinDAO",
      "outputs": [],
      "stateMutability": "nonpayable",
      "type": "function"
    },
    {
      "inputs": [],
      "name": "totalDAOFund",
      "outputs": [
        {
          "internalType": "uint256",
          "name": "",
          "type": "uint256"
        }
      ],
      "stateMutability": "view",
      "type": "function"
    },
    {
      "inputs": [],
      "name": "totalDAOMembers",
      "outputs": [
        {
          "internalType": "uint256",
          "name": "",
          "type": "uint256"
        }
      ],
      "stateMutability": "view",
      "type": "function"
    },
    {
      "inputs": [],
      "name": "totalVotingPower",
      "outputs": [
        {
          "internalType": "uint256",
          "name": "",
          "type": "uint256"
        }
      ],
      "stateMutability": "view",
      "type": "function"
    },
    {
      "inputs": [
        {
          "internalType": "uint256",
          "name": "_idClaimRequests",
          "type": "uint256"
        }
      ],
      "name": "userWithdrawInsurance",
      "outputs": [],
      "stateMutability": "nonpayable",
      "type": "function"
    },
    {
      "inputs": [],
      "name": "viewAllClaimRequests",
      "outputs": [
        {
          "components": [
            {
              "internalType": "uint256",
              "name": "amountRequested",
              "type": "uint256"
            },
            {
              "internalType": "string",
              "name": "description",
              "type": "string"
            },
            {
              "internalType": "string",
              "name": "protocolName",
              "type": "string"
            },
            {
              "internalType": "string",
              "name": "protocolDomain",
              "type": "string"
            },
            {
              "internalType": "address",
              "name": "riskProvider",
              "type": "address"
            },
            {
              "internalType": "address",
              "name": "claimer",
              "type": "address"
            },
            {
              "internalType": "uint256",
              "name": "claimRequestDate",
              "type": "uint256"
            },
            {
              "internalType": "uint256",
              "name": "insuranceID",
              "type": "uint256"
            },
            {
              "internalType": "address[]",
              "name": "membersvoted",
              "type": "address[]"
            },
            {
              "internalType": "uint256",
              "name": "totalVote",
              "type": "uint256"
            },
            {
              "internalType": "bool",
              "name": "claimable",
              "type": "bool"
            }
          ],
          "internalType": "struct Governance.ClaimRequests[]",
          "name": "",
          "type": "tuple[]"
        }
      ],
      "stateMutability": "view",
      "type": "function"
    },
    {
      "inputs": [],
      "name": "viewAllDAOMembers",
      "outputs": [
        {
          "components": [
            {
              "internalType": "uint256",
              "name": "Amount",
              "type": "uint256"
            },
            {
              "internalType": "uint256",
              "name": "votePower",
              "type": "uint256"
            },
            {
              "internalType": "bool",
              "name": "joined",
              "type": "bool"
            },
            {
              "internalType": "uint256",
              "name": "dateJoined",
              "type": "uint256"
            },
            {
              "internalType": "uint256",
              "name": "newClaim",
              "type": "uint256"
            },
            {
              "internalType": "address",
              "name": "memberAddress",
              "type": "address"
            },
            {
              "internalType": "uint256",
              "name": "percentageLevel",
              "type": "uint256"
            }
          ],
          "internalType": "struct Governance.DAOMembers[]",
          "name": "",
          "type": "tuple[]"
        }
      ],
      "stateMutability": "view",
      "type": "function"
    },
    {
      "inputs": [
        {
          "internalType": "uint256",
          "name": "_claimID",
          "type": "uint256"
        }
      ],
      "name": "viewIndividualClaim",
      "outputs": [
        {
          "components": [
            {
              "internalType": "uint256",
              "name": "amountRequested",
              "type": "uint256"
            },
            {
              "internalType": "string",
              "name": "description",
              "type": "string"
            },
            {
              "internalType": "string",
              "name": "protocolName",
              "type": "string"
            },
            {
              "internalType": "string",
              "name": "protocolDomain",
              "type": "string"
            },
            {
              "internalType": "address",
              "name": "riskProvider",
              "type": "address"
            },
            {
              "internalType": "address",
              "name": "claimer",
              "type": "address"
            },
            {
              "internalType": "uint256",
              "name": "claimRequestDate",
              "type": "uint256"
            },
            {
              "internalType": "uint256",
              "name": "insuranceID",
              "type": "uint256"
            },
            {
              "internalType": "address[]",
              "name": "membersvoted",
              "type": "address[]"
            },
            {
              "internalType": "uint256",
              "name": "totalVote",
              "type": "uint256"
            },
            {
              "internalType": "bool",
              "name": "claimable",
              "type": "bool"
            }
          ],
          "internalType": "struct Governance.ClaimRequests",
          "name": "",
          "type": "tuple"
        }
      ],
      "stateMutability": "view",
      "type": "function"
    },
    {
      "inputs": [
        {
          "internalType": "uint256",
          "name": "_id",
          "type": "uint256"
        }
      ],
      "name": "vote",
      "outputs": [],
      "stateMutability": "nonpayable",
      "type": "function"
    },
    {
      "inputs": [
        {
          "internalType": "uint256",
          "name": "_amount",
          "type": "uint256"
        },
        {
          "internalType": "address",
          "name": "_tokenAddress",
          "type": "address"
        },
        {
          "internalType": "address",
          "name": "_withDrawTo",
          "type": "address"
        }
      ],
      "name": "withdrawCustomTokens",
      "outputs": [],
      "stateMutability": "nonpayable",
      "type": "function"
    }
  ],
  "bytecode": "0x608060405260016000553480156200001657600080fd5b5060405162003b7438038062003b7483398181016040528101906200003c9190620001bc565b33600760006101000a81548173ffffffffffffffffffffffffffffffffffffffff021916908373ffffffffffffffffffffffffffffffffffffffff16021790555083600860006101000a81548173ffffffffffffffffffffffffffffffffffffffff021916908373ffffffffffffffffffffffffffffffffffffffff16021790555082600960006101000a81548173ffffffffffffffffffffffffffffffffffffffff021916908373ffffffffffffffffffffffffffffffffffffffff1602179055508160048190555080600581905550505050506200022e565b600080fd5b600073ffffffffffffffffffffffffffffffffffffffff82169050919050565b600062000149826200011c565b9050919050565b6200015b816200013c565b81146200016757600080fd5b50565b6000815190506200017b8162000150565b92915050565b6000819050919050565b620001968162000181565b8114620001a257600080fd5b50565b600081519050620001b6816200018b565b92915050565b60008060008060808587031215620001d957620001d862000117565b5b6000620001e9878288016200016a565b9450506020620001fc878288016200016a565b93505060406200020f87828801620001a5565b92505060606200022287828801620001a5565b91505092959194509250565b613936806200023e6000396000f3fe608060405234801561001057600080fd5b50600436106101375760003560e01c806359584a50116100b8578063c77dbf681161007c578063c77dbf6814610329578063ce30a8cd14610347578063d003fc4e14610351578063d168da441461036d578063e482e7251461038b578063fd480f1b146103a757610137565b806359584a5014610270578063671b3793146102a157806394e98d01146102bf578063958610ff146102dd578063c60bb4f7146102f957610137565b80633fbdf32c116100ff5780633fbdf32c146101de57806348e98438146101fa578063495198451461021857806355f3292c14610236578063581187db1461025457610137565b80630121b93f1461013c578063170359ed146101585780632ceadfcc1461017457806330ad32341461019057806333441936146101ae575b600080fd5b610156600480360381019061015191906120df565b6103b1565b005b610172600480360381019061016d91906120df565b61060f565b005b61018e600480360381019061018991906120df565b610621565b005b61019861069a565b6040516101a591906122b4565b60405180910390f35b6101c860048036038101906101c39190612302565b61079c565b6040516101d591906123bd565b60405180910390f35b6101f860048036038101906101f391906120df565b61089e565b005b610202610c68565b60405161020f91906123e7565b60405180910390f35b610220610c6e565b60405161022d9190612707565b60405180910390f35b61023e611001565b60405161024b91906123e7565b60405180910390f35b61026e6004803603810190610269919061285e565b611007565b005b61028a600480360381019061028591906120df565b611308565b604051610298929190612923565b60405180910390f35b6102a96113fa565b6040516102b691906123e7565b60405180910390f35b6102c7611400565b6040516102d491906123e7565b60405180910390f35b6102f760048036038101906102f291906120df565b611406565b005b610313600480360381019061030e91906120df565b6114c4565b6040516103209190612a50565b60405180910390f35b61033161182b565b60405161033e91906123e7565b60405180910390f35b61034f611831565b005b61036b600480360381019061036691906120df565b61194a565b005b61037561195c565b60405161038291906123e7565b60405180910390f35b6103a560048036038101906103a09190612a72565b61197e565b005b6103af611a0a565b005b6000600d600083815260200190815260200160002090506000600a60003373ffffffffffffffffffffffffffffffffffffffff1673ffffffffffffffffffffffffffffffffffffffff1681526020019081526020016000206040518060e001604052908160008201548152602001600182015481526020016002820160009054906101000a900460ff1615151515815260200160038201548152602001600482015481526020016005820160009054906101000a900473ffffffffffffffffffffffffffffffffffffffff1673ffffffffffffffffffffffffffffffffffffffff1673ffffffffffffffffffffffffffffffffffffffff1681526020016006820154815250509050600115158160400151151514610504576040517f08c379a00000000000000000000000000000000000000000000000000000000081526004016104fb90612b22565b60405180910390fd5b6202a30082600601546105179190612b71565b421115610559576040517f08c379a000000000000000000000000000000000000000000000000000000000815260040161055090612bf1565b60405180910390fd5b60006105653385611b40565b905060011515811515036105ae576040517f08c379a00000000000000000000000000000000000000000000000000000000081526004016105a590612c5d565b60405180910390fd5b600082600001519050808460090160008282546105cb9190612b71565b9250508190555060006105dc61195c565b90508085600901541061060757600185600a0160006101000a81548160ff0219169083151502179055505b505050505050565b610617611c53565b8060048190555050565b610629611ce5565b600061063482611d77565b9050600115158115151461067d576040517f08c379a000000000000000000000000000000000000000000000000000000000815260040161067490612cc9565b60405180910390fd5b816006600082825461068f9190612b71565b925050819055505050565b6060600c805480602002602001604051908101604052809291908181526020016000905b8282101561079357838290600052602060002090600702016040518060e001604052908160008201548152602001600182015481526020016002820160009054906101000a900460ff1615151515815260200160038201548152602001600482015481526020016005820160009054906101000a900473ffffffffffffffffffffffffffffffffffffffff1673ffffffffffffffffffffffffffffffffffffffff1673ffffffffffffffffffffffffffffffffffffffff168152602001600682015481525050815260200190600101906106be565b50505050905090565b6107a4611f49565b6000600a60008473ffffffffffffffffffffffffffffffffffffffff1673ffffffffffffffffffffffffffffffffffffffff1681526020019081526020016000206040518060e001604052908160008201548152602001600182015481526020016002820160009054906101000a900460ff1615151515815260200160038201548152602001600482015481526020016005820160009054906101000a900473ffffffffffffffffffffffffffffffffffffffff1673ffffffffffffffffffffffffffffffffffffffff1673ffffffffffffffffffffffffffffffffffffffff168152602001600682015481525050905080915050919050565b6000600a60003373ffffffffffffffffffffffffffffffffffffffff1673ffffffffffffffffffffffffffffffffffffffff1681526020019081526020016000209050600015158160020160009054906101000a900460ff16151514610939576040517f08c379a000000000000000000000000000000000000000000000000000000000815260040161093090612d35565b60405180910390fd5b600454821015801561094d57506005548211155b61098c576040517f08c379a000000000000000000000000000000000000000000000000000000000815260040161098390612dc7565b60405180910390fd5b600061099783611d77565b905060011515811515146109e0576040517f08c379a00000000000000000000000000000000000000000000000000000000081526004016109d790612e33565b60405180910390fd5b828260000160008282546109f49190612b71565b9250508190555060018260020160006101000a81548160ff021916908315150217905550338260050160006101000a81548173ffffffffffffffffffffffffffffffffffffffff021916908373ffffffffffffffffffffffffffffffffffffffff1602179055506000620f4240610a6a85611e2b565b610a749190612e82565b9050808360010181905550600c83908060018154018082558091505060019003906000526020600020906007020160009091909190915060008201548160000155600182015481600101556002820160009054906101000a900460ff168160020160006101000a81548160ff02191690831515021790555060038201548160030155600482015481600401556005820160009054906101000a900473ffffffffffffffffffffffffffffffffffffffff168160050160006101000a81548173ffffffffffffffffffffffffffffffffffffffff021916908373ffffffffffffffffffffffffffffffffffffffff16021790555060068201548160060155505060016000815480929190610b8690612eb3565b91905055508360026000828254610b9d9190612b71565b925050819055504283600301819055508060036000828254610bbf9190612b71565b92505081905550600b339080600181540180825580915050600190039060005260206000200160009091909190916101000a81548173ffffffffffffffffffffffffffffffffffffffff021916908373ffffffffffffffffffffffffffffffffffffffff1602179055507f8d7f996c3a908123fb0c331e654f4d5188db103ae4dede656c4c3b4ad300d8203385604051610c5a929190612f0a565b60405180910390a150505050565b60045481565b6060600e805480602002602001604051908101604052809291908181526020016000905b82821015610ff857838290600052602060002090600b02016040518061016001604052908160008201548152602001600182018054610cd090612f62565b80601f0160208091040260200160405190810160405280929190818152602001828054610cfc90612f62565b8015610d495780601f10610d1e57610100808354040283529160200191610d49565b820191906000526020600020905b815481529060010190602001808311610d2c57829003601f168201915b50505050508152602001600282018054610d6290612f62565b80601f0160208091040260200160405190810160405280929190818152602001828054610d8e90612f62565b8015610ddb5780601f10610db057610100808354040283529160200191610ddb565b820191906000526020600020905b815481529060010190602001808311610dbe57829003601f168201915b50505050508152602001600382018054610df490612f62565b80601f0160208091040260200160405190810160405280929190818152602001828054610e2090612f62565b8015610e6d5780601f10610e4257610100808354040283529160200191610e6d565b820191906000526020600020905b815481529060010190602001808311610e5057829003601f168201915b505050505081526020016004820160009054906101000a900473ffffffffffffffffffffffffffffffffffffffff1673ffffffffffffffffffffffffffffffffffffffff1673ffffffffffffffffffffffffffffffffffffffff1681526020016005820160009054906101000a900473ffffffffffffffffffffffffffffffffffffffff1673ffffffffffffffffffffffffffffffffffffffff1673ffffffffffffffffffffffffffffffffffffffff168152602001600682015481526020016007820154815260200160088201805480602002602001604051908101604052809291908181526020018280548015610fbb57602002820191906000526020600020905b8160009054906101000a900473ffffffffffffffffffffffffffffffffffffffff1673ffffffffffffffffffffffffffffffffffffffff1681526020019060010190808311610f71575b5050505050815260200160098201548152602001600a820160009054906101000a900460ff16151515158152505081526020019060010190610c92565b50505050905090565b60025481565b61100f611ce5565b600061101a87611d77565b90506001151581151514611063576040517f08c379a000000000000000000000000000000000000000000000000000000000815260040161105a90613005565b60405180910390fd5b6000600d60008054815260200190815260200160002090508781600001819055508681600101908161109591906131d1565b50858160020190816110a791906131d1565b50848160040160006101000a81548173ffffffffffffffffffffffffffffffffffffffff021916908373ffffffffffffffffffffffffffffffffffffffff160217905550428160060181905550838160050160006101000a81548173ffffffffffffffffffffffffffffffffffffffff021916908373ffffffffffffffffffffffffffffffffffffffff160217905550828160070181905550600e8190806001815401808255809150506001900390600052602060002090600b0201600090919091909150600082015481600001556001820181600101908161118a91906132b9565b506002820181600201908161119f91906132b9565b50600382018160030190816111b491906132b9565b506004820160009054906101000a900473ffffffffffffffffffffffffffffffffffffffff168160040160006101000a81548173ffffffffffffffffffffffffffffffffffffffff021916908373ffffffffffffffffffffffffffffffffffffffff1602179055506005820160009054906101000a900473ffffffffffffffffffffffffffffffffffffffff168160050160006101000a81548173ffffffffffffffffffffffffffffffffffffffff021916908373ffffffffffffffffffffffffffffffffffffffff160217905550600682015481600601556007820154816007015560088201816008019080546112ad929190611f9e565b5060098201548160090155600a820160009054906101000a900460ff1681600a0160006101000a81548160ff02191690831515021790555050506000808154809291906112f990612eb3565b91905055505050505050505050565b600080611313611ce5565b6000600d600085815260200190815260200160002090506202a300816006015461133d9190612b71565b42101561137f576040517f08c379a0000000000000000000000000000000000000000000000000000000008152600401611376906133ed565b60405180910390fd5b6000151581600a0160009054906101000a900460ff161515146113d7576040517f08c379a00000000000000000000000000000000000000000000000000000000081526004016113ce90613459565b60405180910390fd5b6113e5338260000154611e50565b50806007015492508060000154915050915091565b60035481565b60055481565b61140e611ce5565b6000600d600083815260200190815260200160002090506001151581600a0160009054906101000a900460ff1615151461147d576040517f08c379a0000000000000000000000000000000000000000000000000000000008152600401611474906134c5565b60405180910390fd5b600081600001819055506000816000015490506114be8260050160009054906101000a900473ffffffffffffffffffffffffffffffffffffffff1682611e50565b50505050565b6114cc611ff0565b6000600d6000848152602001908152602001600020604051806101600160405290816000820154815260200160018201805461150790612f62565b80601f016020809104026020016040519081016040528092919081815260200182805461153390612f62565b80156115805780601f1061155557610100808354040283529160200191611580565b820191906000526020600020905b81548152906001019060200180831161156357829003601f168201915b5050505050815260200160028201805461159990612f62565b80601f01602080910402602001604051908101604052809291908181526020018280546115c590612f62565b80156116125780601f106115e757610100808354040283529160200191611612565b820191906000526020600020905b8154815290600101906020018083116115f557829003601f168201915b5050505050815260200160038201805461162b90612f62565b80601f016020809104026020016040519081016040528092919081815260200182805461165790612f62565b80156116a45780601f10611679576101008083540402835291602001916116a4565b820191906000526020600020905b81548152906001019060200180831161168757829003601f168201915b505050505081526020016004820160009054906101000a900473ffffffffffffffffffffffffffffffffffffffff1673ffffffffffffffffffffffffffffffffffffffff1673ffffffffffffffffffffffffffffffffffffffff1681526020016005820160009054906101000a900473ffffffffffffffffffffffffffffffffffffffff1673ffffffffffffffffffffffffffffffffffffffff1673ffffffffffffffffffffffffffffffffffffffff1681526020016006820154815260200160078201548152602001600882018054806020026020016040519081016040528092919081815260200182805480156117f257602002820191906000526020600020905b8160009054906101000a900473ffffffffffffffffffffffffffffffffffffffff1673ffffffffffffffffffffffffffffffffffffffff16815260200190600101908083116117a8575b5050505050815260200160098201548152602001600a820160009054906101000a900460ff161515151581525050905080915050919050565b60015481565b6000600a60003373ffffffffffffffffffffffffffffffffffffffff1673ffffffffffffffffffffffffffffffffffffffff168152602001908152602001600020905062278d0081600301546118879190612b71565b4210156118c9576040517f08c379a00000000000000000000000000000000000000000000000000000000081526004016118c090613531565b60405180910390fd5b60008160000154905060008260000181905550600082600101819055506000826003018190555060006118fc3383611e50565b90506001151581151514611945576040517f08c379a000000000000000000000000000000000000000000000000000000000815260040161193c9061359d565b60405180910390fd5b505050565b611952611c53565b8060058190555050565b60006064600354603c61196f91906135bd565b6119799190612e82565b905090565b611986611c53565b8173ffffffffffffffffffffffffffffffffffffffff1663a9059cbb82856040518363ffffffff1660e01b81526004016119c1929190612f0a565b6020604051808303816000875af11580156119e0573d6000803e3d6000fd5b505050506040513d601f19601f82011682018060405250810190611a04919061362b565b50505050565b6000600a60003373ffffffffffffffffffffffffffffffffffffffff1673ffffffffffffffffffffffffffffffffffffffff16815260200190815260200160002090508060040154421015611a94576040517f08c379a0000000000000000000000000000000000000000000000000000000008152600401611a8b906136a4565b60405180910390fd5b600081600001549050600060025460065483611ab091906135bd565b611aba9190612e82565b905062278d0042611acb9190612b71565b836004016000828254611ade9190612b71565b925050819055506000611af13383611e50565b90506001151581151514611b3a576040517f08c379a0000000000000000000000000000000000000000000000000000000008152600401611b3190613710565b60405180910390fd5b50505050565b600080600d6000848152602001908152602001600020600801805480602002602001604051908101604052809291908181526020018280548015611bd957602002820191906000526020600020905b8160009054906101000a900473ffffffffffffffffffffffffffffffffffffffff1673ffffffffffffffffffffffffffffffffffffffff1681526020019060010190808311611b8f575b5050505050905060005b8151811015611c4b578473ffffffffffffffffffffffffffffffffffffffff16828281518110611c1657611c15613730565b5b602002602001015173ffffffffffffffffffffffffffffffffffffffff1603611c3e57600192505b8080600101915050611be3565b505092915050565b600760009054906101000a900473ffffffffffffffffffffffffffffffffffffffff1673ffffffffffffffffffffffffffffffffffffffff163373ffffffffffffffffffffffffffffffffffffffff1614611ce3576040517f08c379a0000000000000000000000000000000000000000000000000000000008152600401611cda906137ab565b60405180910390fd5b565b600960009054906101000a900473ffffffffffffffffffffffffffffffffffffffff1673ffffffffffffffffffffffffffffffffffffffff163373ffffffffffffffffffffffffffffffffffffffff1614611d75576040517f08c379a0000000000000000000000000000000000000000000000000000000008152600401611d6c9061383d565b60405180910390fd5b565b6000611d8282611f03565b600860009054906101000a900473ffffffffffffffffffffffffffffffffffffffff1673ffffffffffffffffffffffffffffffffffffffff166323b872dd3330856040518463ffffffff1660e01b8152600401611de19392919061385d565b6020604051808303816000875af1158015611e00573d6000803e3d6000fd5b505050506040513d601f19601f82011682018060405250810190611e24919061362b565b9050919050565b6000600454620f424083611e3f91906135bd565b611e499190612e82565b9050919050565b6000611e5b82611f03565b600860009054906101000a900473ffffffffffffffffffffffffffffffffffffffff1673ffffffffffffffffffffffffffffffffffffffff1663a9059cbb84846040518363ffffffff1660e01b8152600401611eb8929190612f0a565b6020604051808303816000875af1158015611ed7573d6000803e3d6000fd5b505050506040513d601f19601f82011682018060405250810190611efb919061362b565b905092915050565b60008111611f46576040517f08c379a0000000000000000000000000000000000000000000000000000000008152600401611f3d906138e0565b60405180910390fd5b50565b6040518060e0016040528060008152602001600081526020016000151581526020016000815260200160008152602001600073ffffffffffffffffffffffffffffffffffffffff168152602001600081525090565b828054828255906000526020600020908101928215611fdf5760005260206000209182015b82811115611fde578254825591600101919060010190611fc3565b5b509050611fec9190612078565b5090565b60405180610160016040528060008152602001606081526020016060815260200160608152602001600073ffffffffffffffffffffffffffffffffffffffff168152602001600073ffffffffffffffffffffffffffffffffffffffff168152602001600081526020016000815260200160608152602001600081526020016000151581525090565b5b80821115612091576000816000905550600101612079565b5090565b6000604051905090565b600080fd5b600080fd5b6000819050919050565b6120bc816120a9565b81146120c757600080fd5b50565b6000813590506120d9816120b3565b92915050565b6000602082840312156120f5576120f461209f565b5b6000612103848285016120ca565b91505092915050565b600081519050919050565b600082825260208201905092915050565b6000819050602082019050919050565b612141816120a9565b82525050565b60008115159050919050565b61215c81612147565b82525050565b600073ffffffffffffffffffffffffffffffffffffffff82169050919050565b600061218d82612162565b9050919050565b61219d81612182565b82525050565b60e0820160008201516121b96000850182612138565b5060208201516121cc6020850182612138565b5060408201516121df6040850182612153565b5060608201516121f26060850182612138565b5060808201516122056080850182612138565b5060a082015161221860a0850182612194565b5060c082015161222b60c0850182612138565b50505050565b600061223d83836121a3565b60e08301905092915050565b6000602082019050919050565b60006122618261210c565b61226b8185612117565b935061227683612128565b8060005b838110156122a757815161228e8882612231565b975061229983612249565b92505060018101905061227a565b5085935050505092915050565b600060208201905081810360008301526122ce8184612256565b905092915050565b6122df81612182565b81146122ea57600080fd5b50565b6000813590506122fc816122d6565b92915050565b6000602082840312156123185761231761209f565b5b6000612326848285016122ed565b91505092915050565b60e0820160008201516123456000850182612138565b5060208201516123586020850182612138565b50604082015161236b6040850182612153565b50606082015161237e6060850182612138565b5060808201516123916080850182612138565b5060a08201516123a460a0850182612194565b5060c08201516123b760c0850182612138565b50505050565b600060e0820190506123d2600083018461232f565b92915050565b6123e1816120a9565b82525050565b60006020820190506123fc60008301846123d8565b92915050565b600081519050919050565b600082825260208201905092915050565b6000819050602082019050919050565b600081519050919050565b600082825260208201905092915050565b60005b8381101561246857808201518184015260208101905061244d565b60008484015250505050565b6000601f19601f8301169050919050565b60006124908261242e565b61249a8185612439565b93506124aa81856020860161244a565b6124b381612474565b840191505092915050565b600081519050919050565b600082825260208201905092915050565b6000819050602082019050919050565b60006124f68383612194565b60208301905092915050565b6000602082019050919050565b600061251a826124be565b61252481856124c9565b935061252f836124da565b8060005b8381101561256057815161254788826124ea565b975061255283612502565b925050600181019050612533565b5085935050505092915050565b6000610160830160008301516125866000860182612138565b506020830151848203602086015261259e8282612485565b915050604083015184820360408601526125b88282612485565b915050606083015184820360608601526125d28282612485565b91505060808301516125e76080860182612194565b5060a08301516125fa60a0860182612194565b5060c083015161260d60c0860182612138565b5060e083015161262060e0860182612138565b5061010083015184820361010086015261263a828261250f565b915050610120830151612651610120860182612138565b50610140830151612666610140860182612153565b508091505092915050565b600061267d838361256d565b905092915050565b6000602082019050919050565b600061269d82612402565b6126a7818561240d565b9350836020820285016126b98561241e565b8060005b858110156126f557848403895281516126d68582612671565b94506126e183612685565b925060208a019950506001810190506126bd565b50829750879550505050505092915050565b600060208201905081810360008301526127218184612692565b905092915050565b600080fd5b600080fd5b7f4e487b7100000000000000000000000000000000000000000000000000000000600052604160045260246000fd5b61276b82612474565b810181811067ffffffffffffffff8211171561278a57612789612733565b5b80604052505050565b600061279d612095565b90506127a98282612762565b919050565b600067ffffffffffffffff8211156127c9576127c8612733565b5b6127d282612474565b9050602081019050919050565b82818337600083830152505050565b60006128016127fc846127ae565b612793565b90508281526020810184848401111561281d5761281c61272e565b5b6128288482856127df565b509392505050565b600082601f83011261284557612844612729565b5b81356128558482602086016127ee565b91505092915050565b60008060008060008060c0878903121561287b5761287a61209f565b5b600061288989828a016120ca565b965050602087013567ffffffffffffffff8111156128aa576128a96120a4565b5b6128b689828a01612830565b955050604087013567ffffffffffffffff8111156128d7576128d66120a4565b5b6128e389828a01612830565b94505060606128f489828a016122ed565b935050608061290589828a016122ed565b92505060a061291689828a016120ca565b9150509295509295509295565b600060408201905061293860008301856123d8565b61294560208301846123d8565b9392505050565b6000610160830160008301516129656000860182612138565b506020830151848203602086015261297d8282612485565b915050604083015184820360408601526129978282612485565b915050606083015184820360608601526129b18282612485565b91505060808301516129c66080860182612194565b5060a08301516129d960a0860182612194565b5060c08301516129ec60c0860182612138565b5060e08301516129ff60e0860182612138565b50610100830151848203610100860152612a19828261250f565b915050610120830151612a30610120860182612138565b50610140830151612a45610140860182612153565b508091505092915050565b60006020820190508181036000830152612a6a818461294c565b905092915050565b600080600060608486031215612a8b57612a8a61209f565b5b6000612a99868287016120ca565b9350506020612aaa868287016122ed565b9250506040612abb868287016122ed565b9150509250925092565b600082825260208201905092915050565b7f596f7520617265206e6f742061206d656d626572206f66207468652044414f00600082015250565b6000612b0c601f83612ac5565b9150612b1782612ad6565b602082019050919050565b60006020820190508181036000830152612b3b81612aff565b9050919050565b7f4e487b7100000000000000000000000000000000000000000000000000000000600052601160045260246000fd5b6000612b7c826120a9565b9150612b87836120a9565b9250828201905080821115612b9f57612b9e612b42565b5b92915050565b7f566f74696e672074696d65206f76657200000000000000000000000000000000600082015250565b6000612bdb601083612ac5565b9150612be682612ba5565b602082019050919050565b60006020820190508181036000830152612c0a81612bce565b9050919050565b7f796f752063616e277420766f7465207477696365000000000000000000000000600082015250565b6000612c47601483612ac5565b9150612c5282612c11565b602082019050919050565b60006020820190508181036000830152612c7681612c3a565b9050919050565b7f476f7665726e616e636520666565206e6f74206465706f736974656400000000600082015250565b6000612cb3601c83612ac5565b9150612cbe82612c7d565b602082019050919050565b60006020820190508181036000830152612ce281612ca6565b9050919050565b7f596f75206861766520616c7265616479206a6f696e65642044414f0000000000600082015250565b6000612d1f601b83612ac5565b9150612d2a82612ce9565b602082019050919050565b60006020820190508181036000830152612d4e81612d12565b9050919050565b7f596f7520617265206e6f742077697468696e207468652072616e6765206f662060008201527f616d6f756e740000000000000000000000000000000000000000000000000000602082015250565b6000612db1602683612ac5565b9150612dbc82612d55565b604082019050919050565b60006020820190508181036000830152612de081612da4565b9050919050565b7f4465706f73697420636f756c646e2774206a6f696e2044414f00000000000000600082015250565b6000612e1d601983612ac5565b9150612e2882612de7565b602082019050919050565b60006020820190508181036000830152612e4c81612e10565b9050919050565b7f4e487b7100000000000000000000000000000000000000000000000000000000600052601260045260246000fd5b6000612e8d826120a9565b9150612e98836120a9565b925082612ea857612ea7612e53565b5b828204905092915050565b6000612ebe826120a9565b91507fffffffffffffffffffffffffffffffffffffffffffffffffffffffffffffffff8203612ef057612eef612b42565b5b600182019050919050565b612f0481612182565b82525050565b6000604082019050612f1f6000830185612efb565b612f2c60208301846123d8565b9392505050565b7f4e487b7100000000000000000000000000000000000000000000000000000000600052602260045260246000fd5b60006002820490506001821680612f7a57607f821691505b602082108103612f8d57612f8c612f33565b5b50919050565b7f4465706f736974206661696c656420636c61696d20726571756573742066616960008201527f6c65640000000000000000000000000000000000000000000000000000000000602082015250565b6000612fef602383612ac5565b9150612ffa82612f93565b604082019050919050565b6000602082019050818103600083015261301e81612fe2565b9050919050565b60008190508160005260206000209050919050565b60006020601f8301049050919050565b600082821b905092915050565b6000600883026130877fffffffffffffffffffffffffffffffffffffffffffffffffffffffffffffffff8261304a565b613091868361304a565b95508019841693508086168417925050509392505050565b6000819050919050565b60006130ce6130c96130c4846120a9565b6130a9565b6120a9565b9050919050565b6000819050919050565b6130e8836130b3565b6130fc6130f4826130d5565b848454613057565b825550505050565b600090565b613111613104565b61311c8184846130df565b505050565b5b8181101561314057613135600082613109565b600181019050613122565b5050565b601f8211156131855761315681613025565b61315f8461303a565b8101602085101561316e578190505b61318261317a8561303a565b830182613121565b50505b505050565b600082821c905092915050565b60006131a86000198460080261318a565b1980831691505092915050565b60006131c18383613197565b9150826002028217905092915050565b6131da8261242e565b67ffffffffffffffff8111156131f3576131f2612733565b5b6131fd8254612f62565b613208828285613144565b600060209050601f83116001811461323b5760008415613229578287015190505b61323385826131b5565b86555061329b565b601f19841661324986613025565b60005b828110156132715784890151825560018201915060208501945060208101905061324c565b8683101561328e578489015161328a601f891682613197565b8355505b6001600288020188555050505b505050505050565b6000815490506132b281612f62565b9050919050565b8181036132c757505061339f565b6132d0826132a3565b67ffffffffffffffff8111156132e9576132e8612733565b5b6132f38254612f62565b6132fe828285613144565b6000601f83116001811461332d576000841561331b578287015490505b61332585826131b5565b865550613398565b601f19841661333b87613025565b965061334686613025565b60005b8281101561336e57848901548255600182019150600185019450602081019050613349565b8683101561338b5784890154613387601f891682613197565b8355505b6001600288020188555050505b5050505050505b565b7f566f74696e672074696d65206973206e6f74206f766572000000000000000000600082015250565b60006133d7601783612ac5565b91506133e2826133a1565b602082019050919050565b60006020820190508181036000830152613406816133ca565b9050919050565b7f596f752063616e277420636c61696d206772616e74206261636b000000000000600082015250565b6000613443601a83612ac5565b915061344e8261340d565b602082019050919050565b6000602082019050818103600083015261347281613436565b9050919050565b7f596f752063616e277420636c61696d206772616e740000000000000000000000600082015250565b60006134af601583612ac5565b91506134ba82613479565b602082019050919050565b600060208201905081810360008301526134de816134a2565b9050919050565b7f596f752063616e27742077696864726177206e6f770000000000000000000000600082015250565b600061351b601583612ac5565b9150613526826134e5565b602082019050919050565b6000602082019050818103600083015261354a8161350e565b9050919050565b7f436f756c646e2774207769746864726177207468652066756e64000000000000600082015250565b6000613587601a83612ac5565b915061359282613551565b602082019050919050565b600060208201905081810360008301526135b68161357a565b9050919050565b60006135c8826120a9565b91506135d3836120a9565b92508282026135e1816120a9565b915082820484148315176135f8576135f7612b42565b5b5092915050565b61360881612147565b811461361357600080fd5b50565b600081519050613625816135ff565b92915050565b6000602082840312156136415761364061209f565b5b600061364f84828501613616565b91505092915050565b7f596f752063616e277420636c61696d206e6f7700000000000000000000000000600082015250565b600061368e601383612ac5565b915061369982613658565b602082019050919050565b600060208201905081810360008301526136bd81613681565b9050919050565b7f596f7520636f756c646e277420636c61696d2066656500000000000000000000600082015250565b60006136fa601683612ac5565b9150613705826136c4565b602082019050919050565b60006020820190508181036000830152613729816136ed565b9050919050565b7f4e487b7100000000000000000000000000000000000000000000000000000000600052603260045260246000fd5b7f4e6f742061646d696e0000000000000000000000000000000000000000000000600082015250565b6000613795600983612ac5565b91506137a08261375f565b602082019050919050565b600060208201905081810360008301526137c481613788565b9050919050565b7f4f6e6c7920696e737572616e636520636f6e74726163742063616e2063616c6c60008201527f20746869732066756e6374696f6e000000000000000000000000000000000000602082015250565b6000613827602e83612ac5565b9150613832826137cb565b604082019050919050565b600060208201905081810360008301526138568161381a565b9050919050565b60006060820190506138726000830186612efb565b61387f6020830185612efb565b61388c60408301846123d8565b949350505050565b7f416d6f756e74206d7573742062652067726561746572207468616e207a65726f600082015250565b60006138ca602083612ac5565b91506138d582613894565b602082019050919050565b600060208201905081810360008301526138f9816138bd565b905091905056fea264697066735822122056fc23de760b39b37c22cc186f953ad5b17182f8c1cfb05285a112806a9effc964736f6c63430008180033",
  "linkReferences": {},
  "deployedLinkReferences": {}
}