{
  "_format": "hh-sol-artifact-1",
  "contractName": "insure",
  "sourceName": "contracts/insure.sol",
  "abi": [
    {
      "inputs": [
        {
          "internalType": "address",
          "name": "_tokenAddress",
          "type": "address"
        }
      ],
      "stateMutability": "nonpayable",
      "type": "constructor"
    },
    {
      "anonymous": false,
      "inputs": [
        {
          "indexed": false,
          "internalType": "string",
          "name": "protocolName",
          "type": "string"
        },
        {
          "indexed": false,
          "internalType": "string",
          "name": "protocolDomain",
          "type": "string"
        },
        {
          "indexed": false,
          "internalType": "uint256",
          "name": "coverAdded",
          "type": "uint256"
        },
        {
          "indexed": false,
          "internalType": "address",
          "name": "creatorAddress",
          "type": "address"
        },
        {
          "indexed": false,
          "internalType": "uint256",
          "name": "creationTime",
          "type": "uint256"
        }
      ],
      "name": "AddOnExistingInsure",
      "type": "event"
    },
    {
      "anonymous": false,
      "inputs": [
        {
          "indexed": false,
          "internalType": "string",
          "name": "protocol",
          "type": "string"
        },
        {
          "indexed": false,
          "internalType": "uint256",
          "name": "totalCoverBought",
          "type": "uint256"
        },
        {
          "indexed": false,
          "internalType": "uint256",
          "name": "amountPaid",
          "type": "uint256"
        },
        {
          "indexed": false,
          "internalType": "uint256",
          "name": "totalPeriod",
          "type": "uint256"
        },
        {
          "indexed": false,
          "internalType": "enum insure.RiskLevel",
          "name": "_risklevel",
          "type": "uint8"
        }
      ],
      "name": "CoverBought",
      "type": "event"
    },
    {
      "anonymous": false,
      "inputs": [
        {
          "indexed": false,
          "internalType": "string",
          "name": "protocolName",
          "type": "string"
        },
        {
          "indexed": false,
          "internalType": "string",
          "name": "protocolDomain",
          "type": "string"
        },
        {
          "indexed": false,
          "internalType": "uint256",
          "name": "totalCoverCreated",
          "type": "uint256"
        },
        {
          "indexed": false,
          "internalType": "address",
          "name": "creatorAddress",
          "type": "address"
        },
        {
          "indexed": false,
          "internalType": "enum insure.RiskLevel",
          "name": "_risklevel",
          "type": "uint8"
        },
        {
          "indexed": false,
          "internalType": "uint256",
          "name": "creationTime",
          "type": "uint256"
        },
        {
          "indexed": false,
          "internalType": "uint256",
          "name": "_protocolID",
          "type": "uint256"
        }
      ],
      "name": "NewInsure",
      "type": "event"
    },
    {
      "inputs": [
        {
          "internalType": "uint256",
          "name": "_id",
          "type": "uint256"
        },
        {
          "internalType": "uint256",
          "name": "_coverPeriod",
          "type": "uint256"
        },
        {
          "internalType": "uint256",
          "name": "_coverAmount",
          "type": "uint256"
        }
      ],
      "name": "buyCover",
      "outputs": [],
      "stateMutability": "nonpayable",
      "type": "function"
    },
    {
      "inputs": [
        {
          "internalType": "enum insure.RiskLevel",
          "name": "_riskLevel",
          "type": "uint8"
        },
        {
          "internalType": "uint256",
          "name": "_coverPeriod",
          "type": "uint256"
        },
        {
          "internalType": "uint256",
          "name": "_coverAmount",
          "type": "uint256"
        }
      ],
      "name": "calculateCover",
      "outputs": [
        {
          "internalType": "uint256",
          "name": "cover",
          "type": "uint256"
        }
      ],
      "stateMutability": "pure",
      "type": "function"
    },
    {
      "inputs": [
        {
          "internalType": "string",
          "name": "protocolName",
          "type": "string"
        },
        {
          "internalType": "string",
          "name": "protocolDomain",
          "type": "string"
        },
        {
          "internalType": "string",
          "name": "_description",
          "type": "string"
        },
        {
          "internalType": "uint256",
          "name": "totalCoverAmount",
          "type": "uint256"
        },
        {
          "internalType": "enum insure.RiskLevel",
          "name": "_risklevel",
          "type": "uint8"
        }
      ],
      "name": "createNewInsure",
      "outputs": [],
      "stateMutability": "nonpayable",
      "type": "function"
    },
    {
      "inputs": [
        {
          "internalType": "uint256",
          "name": "_id",
          "type": "uint256"
        },
        {
          "internalType": "uint256",
          "name": "_coverAmount",
          "type": "uint256"
        }
      ],
      "name": "createOnExistinginsure",
      "outputs": [],
      "stateMutability": "nonpayable",
      "type": "function"
    },
    {
      "inputs": [],
      "name": "getAllProtocolData",
      "outputs": [
        {
          "components": [
            {
              "internalType": "uint256",
              "name": "totalCover",
              "type": "uint256"
            },
            {
              "internalType": "uint256",
              "name": "coverLeft",
              "type": "uint256"
            },
            {
              "internalType": "uint256",
              "name": "totalCoverPaid",
              "type": "uint256"
            },
            {
              "internalType": "string",
              "name": "protocolName",
              "type": "string"
            },
            {
              "internalType": "string",
              "name": "domainName",
              "type": "string"
            },
            {
              "internalType": "string",
              "name": "description",
              "type": "string"
            },
            {
              "internalType": "enum insure.RiskLevel",
              "name": "risklevel",
              "type": "uint8"
            }
          ],
          "internalType": "struct insure.ProtocolData[]",
          "name": "protocolData",
          "type": "tuple[]"
        }
      ],
      "stateMutability": "view",
      "type": "function"
    },
    {
      "inputs": [
        {
          "internalType": "uint256",
          "name": "_id",
          "type": "uint256"
        }
      ],
      "name": "getAllUsersOfProtocol",
      "outputs": [
        {
          "internalType": "address[]",
          "name": "",
          "type": "address[]"
        }
      ],
      "stateMutability": "view",
      "type": "function"
    },
    {
      "inputs": [
        {
          "internalType": "uint256",
          "name": "_id",
          "type": "uint256"
        }
      ],
      "name": "getProtocolData",
      "outputs": [
        {
          "internalType": "uint256",
          "name": "",
          "type": "uint256"
        },
        {
          "internalType": "uint256",
          "name": "",
          "type": "uint256"
        },
        {
          "internalType": "uint256",
          "name": "",
          "type": "uint256"
        },
        {
          "internalType": "uint256",
          "name": "",
          "type": "uint256"
        },
        {
          "internalType": "string",
          "name": "",
          "type": "string"
        },
        {
          "internalType": "string",
          "name": "",
          "type": "string"
        },
        {
          "internalType": "string",
          "name": "",
          "type": "string"
        },
        {
          "internalType": "enum insure.RiskLevel",
          "name": "",
          "type": "uint8"
        }
      ],
      "stateMutability": "view",
      "type": "function"
    },
    {
      "inputs": [],
      "name": "id",
      "outputs": [
        {
          "internalType": "uint40",
          "name": "",
          "type": "uint40"
        }
      ],
      "stateMutability": "view",
      "type": "function"
    },
    {
      "inputs": [
        {
          "internalType": "uint256",
          "name": "_idOfClaimRequests",
          "type": "uint256"
        }
      ],
      "name": "riskAssessorGetsClaimBack",
      "outputs": [],
      "stateMutability": "nonpayable",
      "type": "function"
    },
    {
      "inputs": [
        {
          "internalType": "uint256",
          "name": "_id",
          "type": "uint256"
        }
      ],
      "name": "riskassessorWithdrawCover",
      "outputs": [],
      "stateMutability": "nonpayable",
      "type": "function"
    },
    {
      "inputs": [
        {
          "internalType": "uint256",
          "name": "_id",
          "type": "uint256"
        }
      ],
      "name": "riskassessorWithdrawProfit",
      "outputs": [],
      "stateMutability": "nonpayable",
      "type": "function"
    },
    {
      "inputs": [
        {
          "internalType": "address",
          "name": "_governanceAddress",
          "type": "address"
        }
      ],
      "name": "setGovernanceAddress",
      "outputs": [],
      "stateMutability": "nonpayable",
      "type": "function"
    },
    {
      "inputs": [
        {
          "internalType": "address",
          "name": "_tokenAddress",
          "type": "address"
        }
      ],
      "name": "setTokenAddress",
      "outputs": [],
      "stateMutability": "nonpayable",
      "type": "function"
    },
    {
      "inputs": [
        {
          "internalType": "uint256",
          "name": "_idOfClaimRequests",
          "type": "uint256"
        }
      ],
      "name": "userGetClaim",
      "outputs": [],
      "stateMutability": "nonpayable",
      "type": "function"
    },
    {
      "inputs": [
        {
          "internalType": "uint256",
          "name": "_id",
          "type": "uint256"
        },
        {
          "internalType": "string",
          "name": "_description",
          "type": "string"
        }
      ],
      "name": "userRequestCover",
      "outputs": [],
      "stateMutability": "nonpayable",
      "type": "function"
    },
    {
      "inputs": [
        {
          "internalType": "uint256",
          "name": "_id",
          "type": "uint256"
        }
      ],
      "name": "viewProtocolCoverUser",
      "outputs": [
        {
          "components": [
            {
              "internalType": "uint256",
              "name": "totalCoverBought",
              "type": "uint256"
            },
            {
              "internalType": "uint256",
              "name": "covePaidFor",
              "type": "uint256"
            },
            {
              "internalType": "uint256",
              "name": "dateBought",
              "type": "uint256"
            },
            {
              "internalType": "bool",
              "name": "requestedCover",
              "type": "bool"
            }
          ],
          "internalType": "struct insure.Users",
          "name": "",
          "type": "tuple"
        }
      ],
      "stateMutability": "view",
      "type": "function"
    },
    {
      "inputs": [
        {
          "internalType": "uint256",
          "name": "_id",
          "type": "uint256"
        }
      ],
      "name": "viewRiskAssessorData",
      "outputs": [
        {
          "components": [
            {
              "internalType": "uint256",
              "name": "totalCoverProvided",
              "type": "uint256"
            },
            {
              "internalType": "uint256",
              "name": "initialCoverCreationDate",
              "type": "uint256"
            },
            {
              "internalType": "uint256",
              "name": "lastWithdrawal",
              "type": "uint256"
            }
          ],
          "internalType": "struct insure.RiskAsessor",
          "name": "",
          "type": "tuple"
        }
      ],
      "stateMutability": "view",
      "type": "function"
    },
    {
      "inputs": [
        {
          "internalType": "address",
          "name": "_feeAddress",
          "type": "address"
        }
      ],
      "name": "withDrawFee",
      "outputs": [],
      "stateMutability": "nonpayable",
      "type": "function"
    }
  ],
  "bytecode": "0x608060405260016000806101000a81548164ffffffffff021916908364ffffffffff1602179055506002600160146101000a81548160ff021916908360ff16021790555060038060006101000a81548160ff021916908360ff1602179055503480156200006b57600080fd5b5060405162003a9538038062003a95833981810160405281019062000091919062000184565b33600060056101000a81548173ffffffffffffffffffffffffffffffffffffffff021916908373ffffffffffffffffffffffffffffffffffffffff16021790555080600160006101000a81548173ffffffffffffffffffffffffffffffffffffffff021916908373ffffffffffffffffffffffffffffffffffffffff16021790555050620001b6565b600080fd5b600073ffffffffffffffffffffffffffffffffffffffff82169050919050565b60006200014c826200011f565b9050919050565b6200015e816200013f565b81146200016a57600080fd5b50565b6000815190506200017e8162000153565b92915050565b6000602082840312156200019d576200019c6200011a565b5b6000620001ad848285016200016d565b91505092915050565b6138cf80620001c66000396000f3fe608060405234801561001057600080fd5b50600436106101165760003560e01c8063bb670f92116100a2578063cfc1625411610071578063cfc16254146102e0578063d8cf6cf9146102fc578063e246cb5a14610318578063e6a94e1614610348578063ee234a811461036657610116565b8063bb670f9214610241578063bfbbc2cc14610271578063ca1e1622146102a8578063cf03d77f146102c457610116565b806343a4ad71116100e957806343a4ad711461019f5780638dd48be5146101bb578063a992932a146101eb578063ae2ab9aa14610207578063af640d0f1461022357610116565b806308df94e81461011b5780630ba04ac3146101375780631721d8351461016757806326a4e8d214610183575b600080fd5b6101356004803603810190610130919061222e565b610382565b005b610151600480360381019061014c919061222e565b610412565b60405161015e919061234b565b60405180910390f35b610181600480360381019061017c919061236d565b6104bc565b005b61019d600480360381019061019891906123d9565b61064c565b005b6101b960048036038101906101b491906123d9565b6106a1565b005b6101d560048036038101906101d0919061222e565b61070c565b6040516101e29190612457565b60405180910390f35b610205600480360381019061020091906125b8565b61079d565b005b610221600480360381019061021c919061222e565b610a8d565b005b61022b610d23565b6040516102389190612634565b60405180910390f35b61025b60048036038101906102569190612674565b610d38565b60405161026891906126d6565b60405180910390f35b61028b6004803603810190610286919061222e565b610f7f565b60405161029f9897969594939291906127e7565b60405180910390f35b6102c260048036038101906102bd919061222e565b611194565b005b6102de60048036038101906102d9919061287a565b611270565b005b6102fa60048036038101906102f591906123d9565b61150f565b005b6103166004803603810190610311919061222e565b611564565b005b610332600480360381019061032d919061222e565b6117b9565b60405161033f91906129b9565b60405180910390f35b610350611865565b60405161035d9190612b99565b60405180910390f35b610380600480360381019061037b9190612bbb565b611b8b565b005b600360019054906101000a900473ffffffffffffffffffffffffffffffffffffffff1673ffffffffffffffffffffffffffffffffffffffff1663958610ff826040518263ffffffff1660e01b81526004016103dd91906126d6565b600060405180830381600087803b1580156103f757600080fd5b505af115801561040b573d6000803e3d6000fd5b5050505050565b60606000600460008481526020019081526020016000209050806009018054806020026020016040519081016040528092919081815260200182805480156104af57602002820191906000526020600020905b8160009054906101000a900473ffffffffffffffffffffffffffffffffffffffff1673ffffffffffffffffffffffffffffffffffffffff1681526020019060010190808311610465575b5050505050915050919050565b60006104c782611ecf565b90506001151581151514610510576040517f08c379a000000000000000000000000000000000000000000000000000000000815260040161050790612c80565b60405180910390fd5b60006004600085815260200190815260200160002090508281600101600082825461053b9190612ccf565b92505081905550828160020160008282546105569190612ccf565b925050819055508281600b0160003373ffffffffffffffffffffffffffffffffffffffff1673ffffffffffffffffffffffffffffffffffffffff16815260200190815260200160002060000160008282546105b19190612ccf565b925050819055504281600b0160003373ffffffffffffffffffffffffffffffffffffffff1673ffffffffffffffffffffffffffffffffffffffff168152602001908152602001600020600101819055507f1051e6f724aa6a842902afaf8c5a126e451a819e09252c8217368167e5f4fd44816004018260060185334260405161063e959493929190612e0b565b60405180910390a150505050565b610654611f83565b61065d81612015565b80600160006101000a81548173ffffffffffffffffffffffffffffffffffffffff021916908373ffffffffffffffffffffffffffffffffffffffff16021790555050565b6106a9611f83565b60006106b782600254612051565b90506001151581151514610700576040517f08c379a00000000000000000000000000000000000000000000000000000000081526004016106f790612eb8565b60405180910390fd5b60006002819055505050565b61071461214a565b600060046000848152602001908152602001600020905080600b0160003373ffffffffffffffffffffffffffffffffffffffff1673ffffffffffffffffffffffffffffffffffffffff1681526020019081526020016000206040518060600160405290816000820154815260200160018201548152602001600282015481525050915050919050565b6000600460008481526020019081526020016000209050600081600a0160003373ffffffffffffffffffffffffffffffffffffffff1673ffffffffffffffffffffffffffffffffffffffff16815260200190815260200160002060020154905042811015610840576040517f08c379a000000000000000000000000000000000000000000000000000000000815260040161083790612f4a565b60405180910390fd5b6000151582600a0160003373ffffffffffffffffffffffffffffffffffffffff1673ffffffffffffffffffffffffffffffffffffffff16815260200190815260200160002060030160009054906101000a900460ff161515146108d8576040517f08c379a00000000000000000000000000000000000000000000000000000000081526004016108cf90612fb6565b60405180910390fd5b600082600a0160003373ffffffffffffffffffffffffffffffffffffffff1673ffffffffffffffffffffffffffffffffffffffff168152602001908152602001600020600001549050600360019054906101000a900473ffffffffffffffffffffffffffffffffffffffff1673ffffffffffffffffffffffffffffffffffffffff1663581187db8286866004018760050160009054906101000a900473ffffffffffffffffffffffffffffffffffffffff16338b6040518763ffffffff1660e01b81526004016109ad96959493929190612fd6565b600060405180830381600087803b1580156109c757600080fd5b505af11580156109db573d6000803e3d6000fd5b50505050600183600a0160003373ffffffffffffffffffffffffffffffffffffffff1673ffffffffffffffffffffffffffffffffffffffff16815260200190815260200160002060030160006101000a81548160ff021916908315150217905550600083600a0160003373ffffffffffffffffffffffffffffffffffffffff1673ffffffffffffffffffffffffffffffffffffffff168152602001908152602001600020600001819055505050505050565b6000600460008381526020019081526020016000209050600081600b0160003373ffffffffffffffffffffffffffffffffffffffff1673ffffffffffffffffffffffffffffffffffffffff168152602001908152602001600020600101549050600082600b0160003373ffffffffffffffffffffffffffffffffffffffff1673ffffffffffffffffffffffffffffffffffffffff16815260200190815260200160002060020154905062278d0082610b459190612ccf565b421015610b5157600080fd5b80421015610b5e57600080fd5b600083600201549050600084600101549050600085600b0160003373ffffffffffffffffffffffffffffffffffffffff1673ffffffffffffffffffffffffffffffffffffffff1681526020019081526020016000206000015490506000828483610bc89190613045565b610bd291906130b6565b905080876002016000828254610be891906130e7565b9250508190555080876001016000828254610c0391906130e7565b925050819055508087600b0160003373ffffffffffffffffffffffffffffffffffffffff1673ffffffffffffffffffffffffffffffffffffffff1681526020019081526020016000206000016000828254610c5e91906130e7565b9250508190555062278d0087600b0160003373ffffffffffffffffffffffffffffffffffffffff1673ffffffffffffffffffffffffffffffffffffffff1681526020019081526020016000206002016000828254610cbc9190612ccf565b925050819055506000610ccf3383612051565b90506001151581151514610d18576040517f08c379a0000000000000000000000000000000000000000000000000000000008152600401610d0f90613167565b60405180910390fd5b505050505050505050565b60008054906101000a900464ffffffffff1681565b6000806004811115610d4d57610d4c612770565b5b846004811115610d6057610d5f612770565b5b03610db55761016d61ffff166103e861ffff16610d7d9190613045565b8284610d899190613045565b60196000610d979190613194565b60ff16610da49190613045565b610dae91906130b6565b9050610f78565b60016004811115610dc957610dc8612770565b5b846004811115610ddc57610ddb612770565b5b03610e315761016d61ffff166103e861ffff16610df99190613045565b8284610e059190613045565b60196014610e139190613194565b60ff16610e209190613045565b610e2a91906130b6565b9050610f77565b60026004811115610e4557610e44612770565b5b846004811115610e5857610e57612770565b5b03610ead5761016d61ffff166103e861ffff16610e759190613045565b8284610e819190613045565b60196028610e8f9190613194565b60ff16610e9c9190613045565b610ea691906130b6565b9050610f76565b60036004811115610ec157610ec0612770565b5b846004811115610ed457610ed3612770565b5b03610f295761016d61ffff166103e861ffff16610ef19190613045565b8284610efd9190613045565b6019603c610f0b9190613194565b60ff16610f189190613045565b610f2291906130b6565b9050610f75565b61016d61ffff166103e861ffff16610f419190613045565b8284610f4d9190613045565b60196050610f5b9190613194565b60ff16610f689190613045565b610f7291906130b6565b90505b5b5b5b9392505050565b6000806000806060806060600080600460008b8152602001908152602001600020905080600001548160010154826002015483600301548460040185600601866007018760080160009054906101000a900460ff16838054610fe090612d32565b80601f016020809104026020016040519081016040528092919081815260200182805461100c90612d32565b80156110595780601f1061102e57610100808354040283529160200191611059565b820191906000526020600020905b81548152906001019060200180831161103c57829003601f168201915b5050505050935082805461106c90612d32565b80601f016020809104026020016040519081016040528092919081815260200182805461109890612d32565b80156110e55780601f106110ba576101008083540402835291602001916110e5565b820191906000526020600020905b8154815290600101906020018083116110c857829003601f168201915b505050505092508180546110f890612d32565b80601f016020809104026020016040519081016040528092919081815260200182805461112490612d32565b80156111715780601f1061114657610100808354040283529160200191611171565b820191906000526020600020905b81548152906001019060200180831161115457829003601f168201915b505050505091509850985098509850985098509850985050919395975091939597565b600080600360019054906101000a900473ffffffffffffffffffffffffffffffffffffffff1673ffffffffffffffffffffffffffffffffffffffff166359584a50846040518263ffffffff1660e01b81526004016111f291906126d6565b60408051808303816000875af1158015611210573d6000803e3d6000fd5b505050506040513d601f19601f8201168201806040525081019061123491906131de565b915091506000600460008481526020019081526020016000209050818160020160008282546112639190612ccf565b9250508190555050505050565b600061127b83611ecf565b905060011515811515146112c4576040517f08c379a00000000000000000000000000000000000000000000000000000000081526004016112bb90612c80565b60405180910390fd5b6000600460008060009054906101000a900464ffffffffff1664ffffffffff16815260200190815260200160002090508681600401908161130591906133b5565b508581600601908161131791906133b5565b508381600101600082825461132c9190612ccf565b92505081905550838160020181905550828160080160006101000a81548160ff0219169083600481111561136357611362612770565b5b0217905550338160050160006101000a81548173ffffffffffffffffffffffffffffffffffffffff021916908373ffffffffffffffffffffffffffffffffffffffff160217905550848160070190816113bc91906133b5565b5060008054906101000a900464ffffffffff1664ffffffffff1681600001819055508381600b0160003373ffffffffffffffffffffffffffffffffffffffff1673ffffffffffffffffffffffffffffffffffffffff168152602001908152602001600020600001819055504281600b0160003373ffffffffffffffffffffffffffffffffffffffff1673ffffffffffffffffffffffffffffffffffffffff168152602001908152602001600020600101819055507fa945cfc3e3dfdd4ad48a7bb2a7bef81c7ecf449e3cdf1fabc987f825acb0674687878633874260008054906101000a900464ffffffffff166040516114bc97969594939291906134b8565b60405180910390a160016000808282829054906101000a900464ffffffffff166114e69190613535565b92506101000a81548164ffffffffff021916908364ffffffffff16021790555050505050505050565b611517611f83565b61152081612015565b80600360016101000a81548173ffffffffffffffffffffffffffffffffffffffff021916908373ffffffffffffffffffffffffffffffffffffffff16021790555050565b6000600460008381526020019081526020016000209050600081600b0160003373ffffffffffffffffffffffffffffffffffffffff1673ffffffffffffffffffffffffffffffffffffffff16815260200190815260200160002060000154905060008260010154905060008360030154905060008282856115e59190613045565b6115ef91906130b6565b905060006064600160149054906101000a900460ff1660ff16836116139190613045565b61161d91906130b6565b90506000606483600360009054906101000a900460ff1660ff166116419190613045565b61164b91906130b6565b9050600081838561165c91906130e7565b61166691906130e7565b9050600088600b0160003373ffffffffffffffffffffffffffffffffffffffff1673ffffffffffffffffffffffffffffffffffffffff1681526020019081526020016000206000018190555082600260008282546116c49190612ccf565b9250508190555060006116d73383612051565b90506001151581151514611720576040517f08c379a0000000000000000000000000000000000000000000000000000000008152600401611717906135ba565b60405180910390fd5b600360019054906101000a900473ffffffffffffffffffffffffffffffffffffffff1673ffffffffffffffffffffffffffffffffffffffff16632ceadfcc846040518263ffffffff1660e01b815260040161177b91906126d6565b600060405180830381600087803b15801561179557600080fd5b505af11580156117a9573d6000803e3d6000fd5b5050505050505050505050505050565b6117c161216b565b600060046000848152602001908152602001600020905080600a0160003373ffffffffffffffffffffffffffffffffffffffff1673ffffffffffffffffffffffffffffffffffffffff1681526020019081526020016000206040518060800160405290816000820154815260200160018201548152602001600282015481526020016003820160009054906101000a900460ff161515151581525050915050919050565b6060600160008054906101000a900464ffffffffff1661188591906135da565b64ffffffffff1667ffffffffffffffff8111156118a5576118a461248d565b5b6040519080825280602002602001820160405280156118de57816020015b6118cb612195565b8152602001906001900390816118c35790505b5090506000600190505b60008054906101000a900464ffffffffff1664ffffffffff16811015611b87576000600460008381526020019081526020016000209050600081600101549050600082600201549050600083600301549050600084600401805461194b90612d32565b80601f016020809104026020016040519081016040528092919081815260200182805461197790612d32565b80156119c45780601f10611999576101008083540402835291602001916119c4565b820191906000526020600020905b8154815290600101906020018083116119a757829003601f168201915b5050505050905060008560060180546119dc90612d32565b80601f0160208091040260200160405190810160405280929190818152602001828054611a0890612d32565b8015611a555780601f10611a2a57610100808354040283529160200191611a55565b820191906000526020600020905b815481529060010190602001808311611a3857829003601f168201915b505050505090506000866007018054611a6d90612d32565b80601f0160208091040260200160405190810160405280929190818152602001828054611a9990612d32565b8015611ae65780601f10611abb57610100808354040283529160200191611ae6565b820191906000526020600020905b815481529060010190602001808311611ac957829003601f168201915b5050505050905060008760080160009054906101000a900460ff1690506040518060e00160405280888152602001878152602001868152602001858152602001848152602001838152602001826004811115611b4557611b44612770565b5b8152508a60018b611b5691906130e7565b81518110611b6757611b66613613565b5b6020026020010181905250505050505050505080806001019150506118e8565b5090565b600060046000858152602001908152602001600020905060008160080160009054906101000a900460ff1690506000611bc5828686610d38565b90506000611bd282611ecf565b90506001151581151514611c1b576040517f08c379a0000000000000000000000000000000000000000000000000000000008152600401611c1290612c80565b60405180910390fd5b8484600201541015611c62576040517f08c379a0000000000000000000000000000000000000000000000000000000008152600401611c599061368e565b60405180910390fd5b8484600a0160003373ffffffffffffffffffffffffffffffffffffffff1673ffffffffffffffffffffffffffffffffffffffff1681526020019081526020016000206000016000828254611cb69190612ccf565b9250508190555084846002016000828254611cd191906130e7565b925050819055506201518086611ce79190613045565b42611cf29190612ccf565b84600a0160003373ffffffffffffffffffffffffffffffffffffffff1673ffffffffffffffffffffffffffffffffffffffff1681526020019081526020016000206002016000828254611d459190612ccf565b925050819055508184600a0160003373ffffffffffffffffffffffffffffffffffffffff1673ffffffffffffffffffffffffffffffffffffffff1681526020019081526020016000206001016000828254611da09190612ccf565b9250508190555081846003016000828254611dbb9190612ccf565b92505081905550600084600a0160003373ffffffffffffffffffffffffffffffffffffffff1673ffffffffffffffffffffffffffffffffffffffff16815260200190815260200160002060030160006101000a81548160ff02191690831515021790555083600901339080600181540180825580915050600190039060005260206000200160009091909190916101000a81548173ffffffffffffffffffffffffffffffffffffffff021916908373ffffffffffffffffffffffffffffffffffffffff1602179055507fb73a72b6f7b7c4f27bfbaff24380d4edd92287d3503a1266299ed965e47d08d08460040186848987604051611ebe9594939291906136ae565b60405180910390a150505050505050565b6000611eda82612104565b600160009054906101000a900473ffffffffffffffffffffffffffffffffffffffff1673ffffffffffffffffffffffffffffffffffffffff166323b872dd3330856040518463ffffffff1660e01b8152600401611f3993929190613708565b6020604051808303816000875af1158015611f58573d6000803e3d6000fd5b505050506040513d601f19601f82011682018060405250810190611f7c919061376b565b9050919050565b600060059054906101000a900473ffffffffffffffffffffffffffffffffffffffff1673ffffffffffffffffffffffffffffffffffffffff163373ffffffffffffffffffffffffffffffffffffffff1614612013576040517f08c379a000000000000000000000000000000000000000000000000000000000815260040161200a906137e4565b60405180910390fd5b565b600073ffffffffffffffffffffffffffffffffffffffff168173ffffffffffffffffffffffffffffffffffffffff160361204e57600080fd5b50565b600061205c82612104565b600160009054906101000a900473ffffffffffffffffffffffffffffffffffffffff1673ffffffffffffffffffffffffffffffffffffffff1663a9059cbb84846040518363ffffffff1660e01b81526004016120b9929190613804565b6020604051808303816000875af11580156120d8573d6000803e3d6000fd5b505050506040513d601f19601f820116820180604052508101906120fc919061376b565b905092915050565b60008111612147576040517f08c379a000000000000000000000000000000000000000000000000000000000815260040161213e90613879565b60405180910390fd5b50565b60405180606001604052806000815260200160008152602001600081525090565b60405180608001604052806000815260200160008152602001600081526020016000151581525090565b6040518060e00160405280600081526020016000815260200160008152602001606081526020016060815260200160608152602001600060048111156121de576121dd612770565b5b81525090565b6000604051905090565b600080fd5b600080fd5b6000819050919050565b61220b816121f8565b811461221657600080fd5b50565b60008135905061222881612202565b92915050565b600060208284031215612244576122436121ee565b5b600061225284828501612219565b91505092915050565b600081519050919050565b600082825260208201905092915050565b6000819050602082019050919050565b600073ffffffffffffffffffffffffffffffffffffffff82169050919050565b60006122b282612287565b9050919050565b6122c2816122a7565b82525050565b60006122d483836122b9565b60208301905092915050565b6000602082019050919050565b60006122f88261225b565b6123028185612266565b935061230d83612277565b8060005b8381101561233e57815161232588826122c8565b9750612330836122e0565b925050600181019050612311565b5085935050505092915050565b6000602082019050818103600083015261236581846122ed565b905092915050565b60008060408385031215612384576123836121ee565b5b600061239285828601612219565b92505060206123a385828601612219565b9150509250929050565b6123b6816122a7565b81146123c157600080fd5b50565b6000813590506123d3816123ad565b92915050565b6000602082840312156123ef576123ee6121ee565b5b60006123fd848285016123c4565b91505092915050565b61240f816121f8565b82525050565b60608201600082015161242b6000850182612406565b50602082015161243e6020850182612406565b5060408201516124516040850182612406565b50505050565b600060608201905061246c6000830184612415565b92915050565b600080fd5b600080fd5b6000601f19601f8301169050919050565b7f4e487b7100000000000000000000000000000000000000000000000000000000600052604160045260246000fd5b6124c58261247c565b810181811067ffffffffffffffff821117156124e4576124e361248d565b5b80604052505050565b60006124f76121e4565b905061250382826124bc565b919050565b600067ffffffffffffffff8211156125235761252261248d565b5b61252c8261247c565b9050602081019050919050565b82818337600083830152505050565b600061255b61255684612508565b6124ed565b90508281526020810184848401111561257757612576612477565b5b612582848285612539565b509392505050565b600082601f83011261259f5761259e612472565b5b81356125af848260208601612548565b91505092915050565b600080604083850312156125cf576125ce6121ee565b5b60006125dd85828601612219565b925050602083013567ffffffffffffffff8111156125fe576125fd6121f3565b5b61260a8582860161258a565b9150509250929050565b600064ffffffffff82169050919050565b61262e81612614565b82525050565b60006020820190506126496000830184612625565b92915050565b6005811061265c57600080fd5b50565b60008135905061266e8161264f565b92915050565b60008060006060848603121561268d5761268c6121ee565b5b600061269b8682870161265f565b93505060206126ac86828701612219565b92505060406126bd86828701612219565b9150509250925092565b6126d0816121f8565b82525050565b60006020820190506126eb60008301846126c7565b92915050565b600081519050919050565b600082825260208201905092915050565b60005b8381101561272b578082015181840152602081019050612710565b60008484015250505050565b6000612742826126f1565b61274c81856126fc565b935061275c81856020860161270d565b6127658161247c565b840191505092915050565b7f4e487b7100000000000000000000000000000000000000000000000000000000600052602160045260246000fd5b600581106127b0576127af612770565b5b50565b60008190506127c18261279f565b919050565b60006127d1826127b3565b9050919050565b6127e1816127c6565b82525050565b6000610100820190506127fd600083018b6126c7565b61280a602083018a6126c7565b61281760408301896126c7565b61282460608301886126c7565b81810360808301526128368187612737565b905081810360a083015261284a8186612737565b905081810360c083015261285e8185612737565b905061286d60e08301846127d8565b9998505050505050505050565b600080600080600060a08688031215612896576128956121ee565b5b600086013567ffffffffffffffff8111156128b4576128b36121f3565b5b6128c08882890161258a565b955050602086013567ffffffffffffffff8111156128e1576128e06121f3565b5b6128ed8882890161258a565b945050604086013567ffffffffffffffff81111561290e5761290d6121f3565b5b61291a8882890161258a565b935050606061292b88828901612219565b925050608061293c8882890161265f565b9150509295509295909350565b60008115159050919050565b61295e81612949565b82525050565b60808201600082015161297a6000850182612406565b50602082015161298d6020850182612406565b5060408201516129a06040850182612406565b5060608201516129b36060850182612955565b50505050565b60006080820190506129ce6000830184612964565b92915050565b600081519050919050565b600082825260208201905092915050565b6000819050602082019050919050565b600082825260208201905092915050565b6000612a1c826126f1565b612a268185612a00565b9350612a3681856020860161270d565b612a3f8161247c565b840191505092915050565b612a53816127c6565b82525050565b600060e083016000830151612a716000860182612406565b506020830151612a846020860182612406565b506040830151612a976040860182612406565b5060608301518482036060860152612aaf8282612a11565b91505060808301518482036080860152612ac98282612a11565b91505060a083015184820360a0860152612ae38282612a11565b91505060c0830151612af860c0860182612a4a565b508091505092915050565b6000612b0f8383612a59565b905092915050565b6000602082019050919050565b6000612b2f826129d4565b612b3981856129df565b935083602082028501612b4b856129f0565b8060005b85811015612b875784840389528151612b688582612b03565b9450612b7383612b17565b925060208a01995050600181019050612b4f565b50829750879550505050505092915050565b60006020820190508181036000830152612bb38184612b24565b905092915050565b600080600060608486031215612bd457612bd36121ee565b5b6000612be286828701612219565b9350506020612bf386828701612219565b9250506040612c0486828701612219565b9150509250925092565b7f4465706f736974206661696c656420496e737572616e6365206e6f742063726560008201527f6174656400000000000000000000000000000000000000000000000000000000602082015250565b6000612c6a6024836126fc565b9150612c7582612c0e565b604082019050919050565b60006020820190508181036000830152612c9981612c5d565b9050919050565b7f4e487b7100000000000000000000000000000000000000000000000000000000600052601160045260246000fd5b6000612cda826121f8565b9150612ce5836121f8565b9250828201905080821115612cfd57612cfc612ca0565b5b92915050565b7f4e487b7100000000000000000000000000000000000000000000000000000000600052602260045260246000fd5b60006002820490506001821680612d4a57607f821691505b602082108103612d5d57612d5c612d03565b5b50919050565b60008190508160005260206000209050919050565b60008154612d8581612d32565b612d8f81866126fc565b94506001821660008114612daa5760018114612dc057612df3565b60ff198316865281151560200286019350612df3565b612dc985612d63565b60005b83811015612deb57815481890152600182019150602081019050612dcc565b808801955050505b50505092915050565b612e05816122a7565b82525050565b600060a0820190508181036000830152612e258188612d78565b90508181036020830152612e398187612d78565b9050612e4860408301866126c7565b612e556060830185612dfc565b612e6260808301846126c7565b9695505050505050565b7f466565206e6f742077697468647261776e000000000000000000000000000000600082015250565b6000612ea26011836126fc565b9150612ead82612e6c565b602082019050919050565b60006020820190508181036000830152612ed181612e95565b9050919050565b7f596f752063616e277420636c61696d20636f7665722c20706572696f64206f7660008201527f6572000000000000000000000000000000000000000000000000000000000000602082015250565b6000612f346022836126fc565b9150612f3f82612ed8565b604082019050919050565b60006020820190508181036000830152612f6381612f27565b9050919050565b7f596f752063616e27742072657175657374207477696365000000000000000000600082015250565b6000612fa06017836126fc565b9150612fab82612f6a565b602082019050919050565b60006020820190508181036000830152612fcf81612f93565b9050919050565b600060c082019050612feb60008301896126c7565b8181036020830152612ffd8188612737565b905081810360408301526130118187612d78565b90506130206060830186612dfc565b61302d6080830185612dfc565b61303a60a08301846126c7565b979650505050505050565b6000613050826121f8565b915061305b836121f8565b9250828202613069816121f8565b915082820484148315176130805761307f612ca0565b5b5092915050565b7f4e487b7100000000000000000000000000000000000000000000000000000000600052601260045260246000fd5b60006130c1826121f8565b91506130cc836121f8565b9250826130dc576130db613087565b5b828204905092915050565b60006130f2826121f8565b91506130fd836121f8565b925082820390508181111561311557613114612ca0565b5b92915050565b7f436f756c646e277420776974686472617720636f7665722070726f7669646564600082015250565b60006131516020836126fc565b915061315c8261311b565b602082019050919050565b6000602082019050818103600083015261318081613144565b9050919050565b600060ff82169050919050565b600061319f82613187565b91506131aa83613187565b9250828201905060ff8111156131c3576131c2612ca0565b5b92915050565b6000815190506131d881612202565b92915050565b600080604083850312156131f5576131f46121ee565b5b6000613203858286016131c9565b9250506020613214858286016131c9565b9150509250929050565b60006020601f8301049050919050565b600082821b905092915050565b60006008830261326b7fffffffffffffffffffffffffffffffffffffffffffffffffffffffffffffffff8261322e565b613275868361322e565b95508019841693508086168417925050509392505050565b6000819050919050565b60006132b26132ad6132a8846121f8565b61328d565b6121f8565b9050919050565b6000819050919050565b6132cc83613297565b6132e06132d8826132b9565b84845461323b565b825550505050565b600090565b6132f56132e8565b6133008184846132c3565b505050565b5b81811015613324576133196000826132ed565b600181019050613306565b5050565b601f8211156133695761333a81612d63565b6133438461321e565b81016020851015613352578190505b61336661335e8561321e565b830182613305565b50505b505050565b600082821c905092915050565b600061338c6000198460080261336e565b1980831691505092915050565b60006133a5838361337b565b9150826002028217905092915050565b6133be826126f1565b67ffffffffffffffff8111156133d7576133d661248d565b5b6133e18254612d32565b6133ec828285613328565b600060209050601f83116001811461341f576000841561340d578287015190505b6134178582613399565b86555061347f565b601f19841661342d86612d63565b60005b8281101561345557848901518255600182019150602085019450602081019050613430565b86831015613472578489015161346e601f89168261337b565b8355505b6001600288020188555050505b505050505050565b60006134a261349d61349884612614565b61328d565b6121f8565b9050919050565b6134b281613487565b82525050565b600060e08201905081810360008301526134d2818a612737565b905081810360208301526134e68189612737565b90506134f560408301886126c7565b6135026060830187612dfc565b61350f60808301866127d8565b61351c60a08301856126c7565b61352960c08301846134a9565b98975050505050505050565b600061354082612614565b915061354b83612614565b9250828201905064ffffffffff81111561356857613567612ca0565b5b92915050565b7f436f756c646e277420706572666f726d20746865207472616e73616374696f6e600082015250565b60006135a46020836126fc565b91506135af8261356e565b602082019050919050565b600060208201905081810360008301526135d381613597565b9050919050565b60006135e582612614565b91506135f083612614565b9250828203905064ffffffffff81111561360d5761360c612ca0565b5b92915050565b7f4e487b7100000000000000000000000000000000000000000000000000000000600052603260045260246000fd5b7f4e6f7420656e6f75676820636f766572206c65667420666f7220796f75000000600082015250565b6000613678601d836126fc565b915061368382613642565b602082019050919050565b600060208201905081810360008301526136a78161366b565b9050919050565b600060a08201905081810360008301526136c88188612d78565b90506136d760208301876126c7565b6136e460408301866126c7565b6136f160608301856126c7565b6136fe60808301846127d8565b9695505050505050565b600060608201905061371d6000830186612dfc565b61372a6020830185612dfc565b61373760408301846126c7565b949350505050565b61374881612949565b811461375357600080fd5b50565b6000815190506137658161373f565b92915050565b600060208284031215613781576137806121ee565b5b600061378f84828501613756565b91505092915050565b7f4e6f742061646d696e0000000000000000000000000000000000000000000000600082015250565b60006137ce6009836126fc565b91506137d982613798565b602082019050919050565b600060208201905081810360008301526137fd816137c1565b9050919050565b60006040820190506138196000830185612dfc565b61382660208301846126c7565b9392505050565b7f416d6f756e74206d7573742062652067726561746572207468616e207a65726f600082015250565b60006138636020836126fc565b915061386e8261382d565b602082019050919050565b6000602082019050818103600083015261389281613856565b905091905056fea2646970667358221220c827b82eed1d3bfd19a6b2fa1f9dfc845f6c06a89d908bab5b3a7ac82368a2cc64736f6c63430008180033",
  "linkReferences": {},
  "deployedLinkReferences": {}
}